:020000040800F2
:10000000E00400209D010008431A00084D16000876
:10001000411A000885080008451B00080000000080
:10002000000000000000000000000000671A000847
:100030008708000800000000651A0008691A000817
:10004000B7010008B7010008B7010008B7010008B0
:10005000B7010008B7010008B7010008B7010008A0
:10006000B7010008B7010008B7010008B701000890
:10007000B7010008B7010008B7010008B701000880
:10008000B7010008B7010008B7010008B701000870
:10009000B7010008B7010008B7010008B701000860
:1000A000B7010008B7010008B7010008B701000850
:1000B000B7010008B7010008B7010008B701000840
:1000C000B7010008B7010008B7010008B701000830
:1000D000B7010008B7010008B7010008B701000820
:1000E000B7010008B7010008B7010008B701000810
:1000F000B7010008B7010008B7010008B701000800
:10010000B7010008B7010008B7010008B7010008EF
:10011000B7010008B7010008B7010008B7010008DF
:10012000B7010008B7010008B7010008B7010008CF
:10013000B7010008B7010008B7010008B7010008BF
:10014000B7010008B7010008B7010008B7010008AF
:10015000B7010008B7010008B7010008B70100089F
:10016000B7010008B7010008B7010008B70100088F
:10017000B7010008B7010008B7010008000000003F
:10018000B7010008B7010008DFF80CD000F068FBE9
:1001900000480047152D0008E0040020064880476D
:1001A00006480047FEE7FEE7FEE7FEE7FEE7FEE75C
:1001B000FEE7FEE7FEE7FEE7F11A00088901000806
:1001C0002DE9F05F0546002092469B46884606468C
:1001D000814640241BE0284641464746224600F01F
:1001E000F8F953465A46C01A914110D311461846A1
:1001F000224600F0DFF92D1A67EB01084F46224630
:100200000120002100F0D6F917EB00094E41201E15
:10021000A4F10104DFDC484631462A464346BDE8E6
:10022000F09FD2B201E000F8012B491EFBD27047CB
:100230000022F6E710B513460A4604461946FFF7B2
:10024000F0FF204610BD2DE9FE4F804681EA0300F5
:10025000C00F0C46009021F0004123F00045B8EBA0
:100260000200A94105D24046214690461C460B4655
:10027000024623F00040104347D0270DC7F30A0081
:10028000C3F30A510290401A019040286BDAC3F37D
:10029000130040F4801B0098924620B10023D2EB5B
:1002A000030A63EB0B0B01985946C0F1400250461C
:1002B00000F080F906460D4650465946019A00F076
:1002C00098F910EB08006141002487EA115284EA92
:1002D000E7731A4340D0009A62B3019A012A4FEAA9
:1002E000075215DC001B61EB02014FF0004202EAED
:1002F0000752CDE90042001C41F5801132462B46E1
:1003000000F0CFF903B0BDE8F08F40462146F9E791
:10031000001B61EB0201001C41F5801300185B41DA
:100320002018A2F5001747EB030140EAD570B61973
:100330006D4111E06D084FEA360645EAC0754FEA97
:100340000752001B61EB0201001C41F580114908B6
:100350004FEA30000019514132462B4603B0BDE848
:10036000F04F00F08FB90098012240000023D0EB3D
:10037000020263EBE073009821464FEAE074B8EBA9
:10038000000061EB0401E9E783F000435BE781F0E3
:10039000004158E72DE9FE4F81EA030404F00044D0
:1003A00021F0004100944FF0000B23F0004350EA8D
:1003B00001045ED052EA03045BD0C3F30A54C1F3D4
:1003C0000A552C44A4F2F3340194A0FB0254C1F367
:1003D000130141F48011C3F3130343F4801301FBB1
:1003E000024400FB034E840A970A44EA815447EA18
:1003F0008357A4FB076802958D0A05FB07854FEA22
:10040000932C04FB0C542705029D4FEA065847EA3B
:100410001637B5EB08056EEB070C870E920E47EA10
:10042000811742EA8312A7FB0201B6EB0B0164EBD2
:1004300000042B0D43EA0C335E1844EB1C50DA46E3
:100440005146E7FB0201C5F313044FEA0B3343EABD
:1004500014534FEA0432019C43EA0603A4F10C044E
:100460000294009CCDE900B400F01BF903B0BDE894
:10047000F08F00200146F9E72DE9F04D81EA0304F1
:1004800004F0004B21F0004514464FF0000A23F021
:10049000004150EA050220D054EA01021DD0C5F304
:1004A0000A570246C5F31303C1F31300C1F30A56FA
:1004B00040F4801543F48013A7EB0608101BD646C2
:1004C00008F2FD3873EB050002D308F1010801E0E2
:1004D00092185B41B8F1000F03DA00200146BDE835
:1004E000F08D00204FF48011064684460EE0171B65
:1004F00073EB050705D3121B63EB050306434CEAB8
:10050000010C49084FEA300092185B4150EA01079C
:10051000EDD152EA030012D082EA040083EA050119
:10052000084305D0101BAB4106D20122002306E090
:1005300000224FF0004302E06FF0010253101AEB6B
:1005400006004CEB085110EB0A0041EB0B01BDE833
:10055000F04D00F097B800F0004230F000400AD0B3
:10056000C10D01F56071C0F3160042EA0151C208E5
:1005700040071143704700200146704701F00043D7
:1005800030B421F0004150EA010206D00A0DA2F574
:100590006072C1F31301002A02DC30BC00207047F6
:1005A000440F44EAC104C100E01830BC00EBC25063
:1005B00000F031B8202A04DB203A00FA02F10020D2
:1005C00070479140C2F1200320FA03F31943904091
:1005D0007047202A04DB203A21FA02F000217047FC
:1005E00021FA02F3D040C2F120029140084319469B
:1005F0007047202A06DBCB17203A41FA02F043EA83
:10060000E07306E041FA02F3D040C2F120029140CB
:100610000843194670470029A8BF7047401C49008D
:1006200008BF20F00100704710B4B0FA80FC00FA57
:100630000CF050EA010404BF10BC704749B1CCF182
:10064000200421FA04F411FA0CF118BF012121430E
:100650000843A3EB0C01CB1D4FEA00614FEA1020C9
:1006600042BF002010BC704700EBC350104400296B
:10067000A4BF10BC7047401C490008BF20F0010017
:1006800010BC704710B5141E73F1000408DA401C4A
:1006900041F1000192185B411A4301D120F00100A1
:1006A00010BD2DE9F04D92469B4611B1B1FA81F291
:1006B00002E0B0FA80F220329046FFF77BFF04465A
:1006C0000F4640EA0A0041EA0B0153465A460843E6
:1006D00013D0114653EA010019D0C8F14002504628
:1006E000FFF777FF05460E46504659464246FFF74C
:1006F00061FF084305D0012004E020463946BDE8EB
:10070000F08D0020054346EAE0762C4337430A98F3
:100710006305E40AA0EB08000022FD0A44EA4754FE
:100720000A3002D500200146E9E7010510196941A8
:10073000DDE9084500196941BDE8F04DA2E770B553
:1007400021F0004303430CD0C1F30A550024D5EB3C
:10075000040564EB0403D617AD1AB34102DB002095
:10076000014670BD201841EB025170BD2DE9F04DDE
:1007700000231A461B1A8A4103DB00200146BDE80C
:10078000F08DC1F30A52C1F3130141F480154FF00B
:10079000000BD10702D100186D41521E00270446FC
:1007A00040F2FF11384601EB620A3E46804602469F
:1007B00000204FF48011FFF70CFFC2197141BB18E4
:1007C00046EB0100B4EB030C75EB000C04D3E41A08
:1007D00065EB000517460E46241908F101006D412E
:1007E00080463428E3DDF91946EB0600091BA841D1
:1007F00003D24FF0FF32134601E0002213461BEBF9
:10080000070046EB0A51BDE8F04DFFF73BBF0EB5C0
:10081000C10F80EAE0700844CA07002140F2334368
:100820008DE80E000A460B46FFF73BFF03B000BD04
:1008300030B5041E71F1000404DB4FF00044404267
:1008400064EB0101141E73F1000405DB1C464FF03C
:100850000043524263EB0403994208BF904230BD0B
:10086000064C074D06E0E06840F0010394E80700FD
:1008700098471034AC42F6D3FFF78AFCB035000835
:10088000D0350008FEE770472DE9F84FDFF87CB15E
:1008900000224FF001084FF0030A4FF00F090BF14F
:1008A000040E00BF0B6808FA02F42340A3426ED185
:1008B0004D68022D01D0122D0ED1D50800EB850C0C
:1008C000DCF820505607F70E09FA07F6B5430E6913
:1008D000BE402E43CCF82060066855000F790AFA16
:1008E00005FC07F0030726EA0C06AF403743076014
:1008F0004E68012E05D0022E03D0112E01D0122EEB
:100900000ED18668CF6826EA0C06AF403743876071
:100910004668A6430C79C4F3001494403443446001
:10092000C6688C6826EA0C06AC403443C4604C6848
:10093000E40065D5364C256845F48045256024687B
:1009400022F0030504F480440094324C2E19D6F8AA
:10095000084895072F0F09FA07F5AC432E4DA8421A
:1009600001D1002524E02D4DA84201D101251FE031
:100970002B4DA84201D102251AE02A4DA84201D1EF
:10098000032515E0284DA84202D1042510E037E0E8
:10099000264DA84201D105250AE0254DA84201D1E6
:1009A000062505E0234DA84201D1072500E00825D2
:1009B000BD402543C6F80858DBF800405D464E6848
:1009C0009C43F60300D51C432C60DEF800407546BE
:1009D0004E689C43B60300D51C432C600B4D083574
:1009E0002C684E689C43F60200D51C432C60074DD2
:1009F0000C352C684E689C43B60200D51C432C6015
:100A0000521C102AFFF44EAFBDE8F88F003C0140A5
:100A1000443802400030014000000240000402401F
:100A200000080240000C0240001002400014024086
:100A300000180240001C02400AB18161704709049D
:100A4000FBE7000001488068704700007400002048
:100A500070B5040004D094F83D00002510B106E004
:100A6000012070BD84F83C50204600F0B5FA2420E7
:100A700084F83D002068016821F00101016000F068
:100A800003FC33492268B0FBF1F15160314A6368DD
:100A9000934206D94FF4967359434FF47A73B1FBDE
:100AA000F3F12368491C1962616891420BD849002F
:100AB000B0FBF1F2C2F30B02042A01D2042019E0C8
:100AC000B0FBF1F016E0A3689BB301EBC10202EBAF
:100AD0000112B0FBF2F242F48042120530D04BB367
:100AE00001EBC10202EB0111B0FBF1F040F48040D8
:100AF00040F400402168C861D4E907010843216837
:100B00000860D4E90310084321688860D4E905012E
:100B100008432168C8602068016841F00101016054
:100B20002564202084F83D00256384F83E50002091
:100B300070BD00E006E001EB4102B0FBF2F2CCE751
:100B40000120D7E701EB4101B0FBF1F0D0E7000055
:100B500040420F00A08601002DE9FF4F81B0994669
:100B60008B4604464FF00108FFF76CFF054694F8EA
:100B70003D0020287BD1192301224D4920460095B4
:100B800000F059FE002872D194F83C0001286ED084
:100B9000012084F83C0020680168C90703D101687E
:100BA00041F0010101602068016821F400610160E9
:100BB000242084F83D00002626643E48E062202779
:100BC0002068016841F4807101604B4600224FF0BB
:100BD00001112046009500F02EFE002858D1216812
:100BE0000BF0FE000861FFF72DFF216805464869FC
:100BF0004969C0F3400094F83D20C1F380214FF0D3
:100C0000A00A12E0B9F1000F04D0FFF71BFF411B4F
:100C1000494501D984F83DA0216848694969C0F374
:100C2000400094F83D20C1F38021084301D1A02A5F
:100C3000E8D184F83D7020684169C943890717D419
:100C4000016841F4007101602068416980691923DD
:100C5000012217492046009500F0EDFDC0B984F847
:100C60003D7084F83C60002005B0BDE8F08F1DE0C9
:100C7000016841F40071016021686FF4806048618F
:100C8000192301220A492046009500F0D4FD08B13D
:100C90000320E9E74146039808F1010881428FD318
:100CA00084F83D7084F83C600120DDE70220DBE73A
:100CB000020010000000FFFF2DE9F84F1F4690468C
:100CC0008A460446DDF82890FFF7BCFE054694F8F6
:100CD0003D0020286FD1192301226E49204600953E
:100CE00000F0A9FD0028F5D194F83C00012862D05D
:100CF000012084F83C0020680168C90703D101681D
:100D000041F0010101602068016821F40061016087
:100D1000222084F83D00102084F83E00002626643E
:100D2000C4F8248067855C48E062608D20852B468E
:100D30004A465146204600F09EFC28B1206C84F8BB
:100D40003C60042841D04DE0208D544F68B101280B
:100D500014D002282068016816D041F48061016037
:100D6000206841698069009085E020684169816957
:100D70000091016841F4007101607CE02068016825
:100D800021F480610160F0E721F480610160206856
:100D9000016841F40061E2E7032849D801280BD03B
:100DA000022817D04B46002239462046009500F015
:100DB00042FDB8B92AE06AE02A464946204600F0DA
:100DC000AFFD28B1206C20280CD00120BDE8F88FA1
:100DD000206845E04B46002239462046009500F049
:100DE0002AFD08B10320F1E72068016841F4007191
:100DF000016020680169606A421C62620170208D96
:100E0000401E2085608D401E6085E1E720680168F6
:100E100021F48061016020680169606A421C62629D
:100E20000170208D401E2085608D401E6085D1E7B9
:100E30002A464946204600F073FD0028C2D12068AA
:100E40000269606A411C61620270208D401E20852B
:100E5000608D401E608520684169C94349070AD4F6
:100E60000169606A421C62620170208D401E20850B
:100E7000608D401E6085208D00288DD1202084F853
:100E80003D0084F83E6084F83C6000209EE702202C
:100E90009CE70000020010000000FFFF04000100BA
:100EA0002DE9F84F1F4690468A460446DDF8289003
:100EB000FFF7C8FD064694F83D0020287ED119238F
:100EC000012243492046009600F0B5FC00287DD160
:100ED00094F83C00012879D0012084F83C00206877
:100EE0000168C90703D1016841F001010160206870
:100EF000016821F400610160212084F83D00102088
:100F000084F83E0000252564C4F8248067853148B4
:100F1000E062608D208533464A465146204600F007
:100F200019FC28B1206C84F83C5004284CD00DE00A
:100F3000206841698069009030E032464946204689
:100F400000F01FFD28B1206C042838D00320BDE834
:100F5000F88F606A411C6162216800780861608DC9
:100F6000401E6085208D401E80B2208521684A6920
:100F7000D24352070BD450B1606A421C62620078BF
:100F80000861608D401E6085208D401E20853246A0
:100F90004946204600F028FC0028D4D1208D0028A6
:100FA000CBD154F83D0B016841F400710160202061
:100FB00004F81E09E57765770020C8E706E0206899
:100FC000016841F4007101600120C0E70220BEE722
:100FD000020010000000FFFF10B586B00446142187
:100FE0006846FFF725F913492068884220D1124846
:100FF000016841F0020101600068694600F00200EA
:101000000590C02000901220019001200290032042
:101010000390042004900948FFF736FC064810307E
:10102000016841F400110160006800F400100590AF
:1010300006B010BD005400403038024000040240A9
:101040000248816802781144816070477400002072
:101050000B4810B5016841F400710160016841F46A
:1010600080610160016841F480710160032000F03B
:1010700061F8002000F006F800F024F8002010BD10
:10108000003C024070B50D4D04464FF47A7128784B
:10109000B1FBF0F00A490968B1FBF0F000F0C2FAC8
:1010A00048B9102C07D200222146501E00F022F829
:1010B00000206C6070BD012070BD00007400002035
:1010C000800000200A4808B5016841F480410160B1
:1010D000006800F4804000900548001F016841F05E
:1010E00080510160006800F08050009008BD000051
:1010F00044380240F0B40E4B1B680C46C3F3022385
:10110000C3F10705042D00D90425191D072901D2B3
:10111000002300E0DB1E012606FA05F1491E2140EE
:1011200099409E40761E16403143F0BC00F08ABCC8
:101130000CED00E0064900F0070208684FF6FF03D7
:10114000184040EA0220034A10430860704700003C
:101150000CED00E00000FA052DE9F0470E46050011
:1011600065D0DFF81481D8F80000F7B200F00F0066
:10117000B04207D288F80070D8F8000000F00F00E5
:10118000B04254D128683D4C810712D5400703D5A1
:10119000206840F4E05020602878000703D52068DC
:1011A00040F4604020602068A96820F0F000084307
:1011B00020602878C0072DD0304968680839012898
:1011C00012D0022813D0032811D0096889070029FA
:1011D0002DDA216821F0030101432160FFF732FC81
:1011E000814641F2883A0EE009688903EFE7096811
:1011F0008901ECE7FFF726FCA0EB0901514502D974
:101200000320BDE8F0872068696800F00C00B0EBAF
:10121000810FEFD1D8F80010404601F00F01B14224
:1012200007D90770006800F00F00B04201D001201C
:10123000E7E72878400705D52068E96820F4E05002
:10124000084320602878000706D52068296920F423
:10125000604040EAC100206000F026F82168084A9A
:10126000C1F30311515CC840064908600020FFF734
:1012700009FF0020C5E70000003C0240083802409A
:101280006E340008800000200448054900680968A1
:10129000044AC1F38221515CC8407047800000209D
:1012A000083802407E340008154810B5006810F078
:1012B0000C02144813D04110042A0FD0082A0ED172
:1012C0000F4C241F2268236802F03F025B0207D5FF
:1012D0002068C0F38810A0FB010106E0084610BD9D
:1012E0002168C1F38811A1FB00010023FEF768FF0C
:1012F0002168C1F30141491C4900B0FBF1F010BD68
:10130000083802400024F4002DE9F84F050076D09B
:101310002878DFF8F8B2BE4CC00749D0DBF80010DF
:101320005846C1F38101012908D00068C0F381004B
:1013300002280AD1201D0068400206D520688003DB
:1013400036D568680028E2D032E06868B0F5803FA2
:1013500010D0B0F5A02F206810D020F4803020608D
:10136000206820F4802020606868A0B1FFF76AFB45
:1013700006460CE0206840F48030F4E740F480201A
:101380002060F7E7FFF75EFB801B642873D82068B6
:101390008003F7D50CE0FFF755FB064605E000BFDC
:1013A000FFF750FB801B6428F0D820688003F7D437
:1013B0002878DFF8608280074FF000093ED5DBF81F
:1013C0000010584611F00C0F09D00068C0F38100DE
:1013D00002280BD18D48001F0068400206D4206807
:1013E000800715D5E868012809D111E0E868B8B18F
:1013F0000120C8F80000FFF725FB064605E002E1E2
:10140000FFF720FB801B0228C0D820688007F7D593
:101410002068296920F0F80040EAC10020600DE052
:10142000C8F80090FFF70EFB064604E0FFF70AFB42
:10143000801B02281FD820688007F7D4287800076F
:1014400022D5724E744869696C3671B10121016010
:10145000FFF7F8FA074604E0FFF7F4FAC01B02288A
:1014600009D830688007F7D50EE0C0F80090FFF784
:10147000E9FA074605E083E0FFF7E4FAC01B02281B
:101480007ED830688007F7D42878400768D5DFF821
:101490007CA100270AF1380ADAF80000C0000BD45A
:1014A000DAF8001041F08051CAF80010DAF80000B4
:1014B000012700F080500090584E3068C00510D4CD
:1014C000306840F480703060FFF7BCFA009005E0AF
:1014D000FFF7B8FA0099401A022851D83068C005C1
:1014E000F6D54A4EA868683601280FD0052830681E
:1014F00010D020F001003060306820F0040030602F
:10150000A868B8B1FFF79EFA00900FE0306840F08D
:101510000100F4E740F004003060F7E7FFF792FACB
:101520000099411A41F28830814264D830688007BE
:10153000F4D50EE0FFF786FA009007E0FFF782FA95
:101540000099411A41F28830814254D830688007AE
:10155000F4D42FB1DAF8001021F08051CAF800104D
:10156000A869C0B3DBF80010C1F3810102294AD099
:101570000228484607D0C8F86000FFF763FA00E089
:1015800039E005463AE04746C8F86000FFF75AFAE6
:10159000064604E0FFF756FA801B02282BD8206885
:1015A0008001F7D4D5E907010843A96A1C4A490814
:1015B00002EB01416A6A41EA8211084395F82C1056
:1015C00040EA01611148001F016001203866FFF701
:1015D00039FA054605E014E0FFF734FA401B02280B
:1015E00009D820688001F7D50BE000BFFFF72AFA81
:1015F000401B022802D90320BDE8F88F2068800133
:10160000F4D40020F8E70120F6E700000838024093
:101610000038024000004742800E47420070004000
:101620000000FFFF10B5401EB0F1807F01D3012004
:1016300010BD4FF0E02460610F21601700F002FA46
:101640000020A06107202061002010BDFEE7016896
:101650004A69D24352050CD46FF480624A61042176
:101660000164002140F8301F2022427301730120E1
:101670007047002070472DE9F84F0446C06A1E46A7
:1016800092460D4621680A6842F480620A60042886
:1016900007D0012805D010F5803F02D0206B11281B
:1016A00004D12068016841F4807101604FF0011895
:1016B0005346002241462046009600F0BCF8B8BBD5
:1016C000206908F10109B0F5804F12D00620216889
:1016D00000EAD51747F0F00008613346524608F19A
:1016E0000701204600F0D8F838B1206C04282FD02C
:1016F0001EE0E8B240F001001FE02168E8B2086196
:10170000334652464946204600F0C6F80028ECD140
:101710002068416981690091016841F4807101602C
:101720005346002241462046009600F084F810B14E
:101730000320BDE8F88F47F0F100216808613346C7
:1017400052464946204600F0A7F80028CDD1F0E7E0
:101750000120EEE7F8B50446C06A1E460D4617465E
:10176000042807D0012805D010F5803F02D0206B57
:10177000122804D12068016841F480710160134689
:1017800000224FF001112046009600F054F8A0B955
:101790002069B0F5804F12D00620216800EAD510EC
:1017A00040F0F000086133463A460E49204600F00A
:1017B00073F838B1206C042811D00320F8BD05F06F
:1017C000FE0000E0E8B221680861064933463A4667
:1017D000891F204600F060F80028EBD1F8BD0120F9
:1017E000F8BD00000800010070B516460D4604461D
:1017F0001AE02046FFF72BFF08B1012070BD681CDE
:1018000012D025B1FFF71EF9801BA8420CD954F85D
:10181000400F40F0200044F81009002020602021F3
:1018200061732073032070BD20684069C043400786
:10183000DFD4002070BD2DE9F0471E4690460D46CE
:101840000446C1F30747DDF8209012E0701C10D069
:101850002EB1FFF7F7F8A0EB0900B04209D900203C
:1018600044F8300F20216173A07320730320BDE87A
:10187000F0872068012F0AD0806925EA0000000463
:10188000000C06D000214145E0D00020EFE7406980
:10189000F3E70121F7E700002DE9F0479A4691466A
:1018A0000D46044600264FF02008C1F307472AE002
:1018B00020684069C043400512D42068016841F4A3
:1018C0000071016021686FF4806048610420206429
:1018D000266384F83D8084F83C600120BDE8F087F1
:1018E000B9F1FF3F0FD0B9F1000F05D0FFF7AAF80B
:1018F000A0EB0A01494506D944F8306F84F80D8001
:1019000026730320EAE72068012F07D0D0F81800DB
:1019100025EA00000004000CE0D0C9E74069F7E7C1
:101920002DE9F041002590460E460446202721E08F
:101930004069C043C0060CD421686FF010004861B4
:101940002564256384F83D7084F83C500120BDE88F
:10195000F0812EB1FFF776F8A0EB0800B04209D96C
:1019600054F8400F40F0200044F8040967702570D7
:101970000320ECE720684169C9434906D8D4002018
:10198000E5E770B516460D4604461AE02046FFF717
:101990005EFE08B1012070BD681C12D025B1FFF7B2
:1019A00051F8801BA8420CD954F8400F40F0200099
:1019B00044F8100900202060202161732073032067
:1019C00070BD20684069C0430006DFD4002070BDB0
:1019D00070B586B014216846FEF72AFC164800242C
:1019E000016841F080010160016801F0800105910A
:1019F000016841F008010160016801F008010591EA
:101A0000016841F00201016000680C4E00F0020024
:101A10004FF480550590002229463046FFF70CF818
:101A200001200095CDE90104694630460394FEF794
:101A30002BFF06B070BD000030380240000C0240A1
:101A4000FEE770470907090E002806DA00F00F00CC
:101A500000F1E02080F8141D704700F1E02080F8CC
:101A60000014704770477047FFF7EABA30B593B07B
:101A700030216846FEF7DCFB14210CA8FEF7D8FBEA
:101A800019480025016841F080510160006800F0AC
:101A9000805011901548016841F480410160006850
:101AA000022400F480401190012000900004019075
:101AB0008001CDE9064008AA0420A82182E813008D
:101AC0000B906846FFF720FC0CA90F2081E831003D
:101AD0004FF4A0500F90E002109005210CA8FFF7E2
:101AE0003BFB13B030BD00004038024000700040A6
:101AF0001048016841F4700101600F48016841F02D
:101B0000010101600C4A00210832116002680B4B90
:101B10001A400260031D0A4A1A60026822F48022F9
:101B2000026005480C30016002495806803908609F
:101B30007047000088ED00E000380240FFFFF6FE2D
:101B400010300024FEE703B401984100009850EAE9
:101B5000C12018BF04204A0D18BF40F0010040F218
:101B6000FF72B2EB515F08BF40F00200012808BFCE
:101B7000052002B07047000070B59B482DED020BA8
:101B80002DED068B079D25F00044A04218DC9748F8
:101B9000844202DC0AD1069840B19DED060BBDECF3
:101BA000068B02B0BDE8704001F04EB8002DCCBFEE
:101BB0009FED8F0B9FED900BBDEC068B02B070BDBF
:101BC0008F48A04215DD8F48A042D8BF4FF0FF34A8
:101BD00058DD9DED060B51EC100BFFF7B4FF042808
:101BE00008BF01F065F89DED060BBDEC068B02B059
:101BF00070BD9DED060B51EC100B01F07FF8CDE9A7
:101C0000060181489FED828BA0423CDD8248A042C4
:101C10001FDD00249FED82AB9DED060B53EC1A2BCC
:101C200051EC100BFEF70FFB9DED060B41EC190B71
:101C300053EC1A2B51EC100BFEF7ACFB53EC182BAA
:101C4000FEF7A2FB53EC192BFEF716FCCDE90601BB
:101C500049E09DED060B012453EC182B51EC100BC1
:101C6000FEF7F1FA9DED060B41EC190B53EC182B26
:101C700051EC100BFEF788FB53EC192BFEF7FCFB25
:101C8000CDE906012FE06848A0421FDD02249FED48
:101C9000689B9DED060B53EC192B51EC100BFEF7D6
:101CA00079FB53EC182BFEF7CEFA9DED060B41ECB9
:101CB000180B53EC192B51EC100BFEF765FB53EC92
:101CC000182BFEF7D9FBCDE906010CE09DED060BC4
:101CD000032453EC102B9FED580B51EC100BFEF727
:101CE000CBFBCDE906019DED060B53EC102B51EC1F
:101CF000100BFEF74FFB41EC180B53EC182BFEF7C3
:101D000049FB41EC190B4E480621B0EE490AF0EEB2
:101D1000690A784400F001FF53EC182B51EC100BCA
:101D2000FEF738FB41EC180B4648B0EE490AF0EEDE
:101D3000690A0521784400F0F0FE53EC192B51ECB0
:101D4000100BFEF727FB41EC100B51EC180B53EC7A
:101D5000102B002C0EDAFEF776FA9DED061B53ECE5
:101D6000112BFEF717FB9DED061B53EC112BFEF715
:101D70000EFB35E0FEF767FA9DED061B53EC112BC9
:101D8000FEF708FB41EC100B2F48784400EBC40031
:101D900090ED001B51EC100B53EC112BFEF7F4FAF5
:101DA0009DED061B53EC112BFEF7EEFA41EC100BE8
:101DB0002648784400EBC40090ED001B51EC100B5A
:101DC00053EC112BFEF7E3FA41EC100B002DA2BFF0
:101DD000BDEC068B02B070BD51EC100B81F00041E0
:101DE00041EC100B01E70000000010440000F07F00
:101DF000182D4454FB21F93F182D4454FB21F9BF01
:101E00000000DC3F0000203E0000F33F0000000027
:101E1000000000000000F03F0000E63F000000006E
:101E200000000000000000400080034000000000AF
:101E3000000000000000F83F000000000000F0BFBC
:101E4000DA170000901700001A170000D2160000E1
:101E50002DE9F04D2DED040B2DED0E8B96B0DDE947
:101E60002550279CDDF890A025F0004624F000487E
:101E7000BAF1000F14BF0121002101EB4502FC491A
:101E800053184A1093422AD3002814BF0123002379
:101E900003EB44030B44F7498B4220D358EA00017B
:101EA0009FEDF59B76D0DFF8D8B35D4503D1BAF14D
:101EB000000F05D188E0BAF1000F08BF002100D063
:101EC000012101EB450111F5001F08D8002814BFBE
:101ED0000121002101EB440111F5001F0BD99DEDFB
:101EE000261B9DED240B16B0BDEC0E8B04B0BDE897
:101EF000F04D00F0B3BE0027002DBCBFE14988457E
:101F000021DAE1498845A8BF02271CDAC3451ADC5B
:101F1000DE4901EB2851142908DDC1F1340220FA11
:101F200002F101FA02F282420DD108E058B9C1F182
:101F3000140228FA02F101FA02F2424503D101F03B
:101F40000101C1F1020756EA0A0124D1002C22DA6C
:101F5000002D18BF022F01D0012F0AD0022000F05F
:101F6000C7FE16B0BDEC0E8B04B0BDE8F04D00F01E
:101F700053BE022000F0BCFE00F04EFE51EC100BF0
:101F800081F0004141EC100B16B0BDEC0E8B04B09B
:101F9000BDE8F08D18E09FEDBEAB9FEDBF8B002834
:101FA00071D1B848804522D105F1804010F58010EC
:101FB00008BFBAF1000F07D0B3450ADC002CA8BF58
:101FC0009DED260BE0DA0DE0B0EE490AF0EE690A6D
:101FD000DAE7002C06DA9DED260B51EC100B81F0B0
:101FE00000416FE0AE48784490ED000BCCE7D84557
:101FF0004DD1002C48DA2EB186423AD1BAF1000F09
:1020000042D126E0BAF1000F13D0022000F070FE9A
:1020100000F03EFE8DED020B9DED240B8DED000BCF
:1020200010EE900A039961F31E0003909DED020BE0
:10203000AAE78DED02AB9DED240B1AEE901A10EE7F
:10204000900A8DED000B61F31E0003909DED020BD5
:102050009AE78DED028B9DED240B18EE901A10EE91
:10206000900A8DED000B61F31E0003909DED020BB5
:102070008AE709DA9DED240B51EC190B53EC102B78
:10208000FEF7FAF91EE020E09DED240B7CE7864286
:102090001BDAB4F1804F0DD0A4F10050B0F1FF5025
:1020A00013D1002D11DB9DED240B51EC100B01F031
:1020B000A7F907E09DED240B53EC102B51EC100B0E
:1020C00000F0C2BC41EC100B5EE79DED240B51EC1F
:1020D000100B00F013FEBAF1000FCDE90E0142D152
:1020E0009FED710B46B3A6F1E040B0F17F600CD0DC
:1020F0005E4538D1002D00DAA7B3022F0CBF0120B6
:102100004FF0FF30FEF783FBDCE7002D01DD002CF4
:102110000DDA002D01DD002C1FDB002D16DA002C5E
:1021200014DB012F08BF9FED620B3FF42DAFB0EE23
:102130004A0AF0EE6A0A27E7022F18BF002D0CD0DA
:10214000012F0AD1002DFFF61FAF06E0002DB8BF0A
:10215000002C08DA012F3FF417AFB0EE480AF0EE7A
:10216000680A11E71BE0012000EBE57050EA070167
:1021700015D0791EB0EE498AF0EE698A084308BF8F
:102180009FED4D8B4E480025804570DD4D494E48F2
:10219000884514DDB0420DDB002C19DB2FE0012057
:1021A00000F0A6FD16B0BDEC0E8B04B0BDE8F04DFE
:1021B00000F05EBDB34502DC002C09DC1FE0864266
:1021C00002DA002C1BDA03E05E452BDD002C16DD65
:1021D000022000F08DFD00F05BFD8DED020B53EC55
:1021E0001A2B51EC180BFEF7D5F8CDE90001039935
:1021F000019861F31E0003909DED020BC4E60220DE
:1022000000F076FD00F054FD10EE901A18EE900AE2
:102210008DED020B8DED008B61F31E0003909DEDA3
:10222000020BB1E69DED0E0B53EC192B51EC100B8C
:10223000FEF7AAF89FED260BCDE9080153EC102B11
:102240009DED080B51EC100BFEF7A4F89FED221B3F
:1022500053EC112BFEF79BF89DED081B53EC112B53
:10226000FEF798F89FED1E1B53EC112B3CE08CE021
:10227000FFFF1F00FFFF0F00000000000000F03F05
:102280000000F03F0000F07F0000404301FCFFFF32
:10229000000000000000F07F0000000000000000CF
:1022A000BE150000000000000000000000000080DB
:1022B000000000000000F0FF000000000000F0BF80
:1022C0000000E0410000F043FFFFEF3F000000008E
:1022D000000000000000D03F555555555555D53FDD
:1022E000000000000000E03FFEF751F89DED080BF4
:1022F00041EC1A0B53EC102B51EC100BFEF74AF883
:1023000053EC1A2BFEF746F841EC1A0B9FEDFE0B2F
:1023100053EC102B9DED080B51EC100BFEF73AF827
:1023200041EC1B0B9FEDFA0B51EC1A0B53EC102BED
:10233000FEF730F841EC1A0B9FEDF70B53EC102B26
:102340009DED080B51EC100BFEF724F853EC1A2B03
:10235000FEF71AF841EC1A0B51EC1B0B53EC1A2B3D
:10236000FDF771FF0690CDE906519DED060B53EC8C
:102370001B2B51EC100BFEF707F853EC1A2BFEF752
:1023800006F841EC100B00F0A1B90020B6F5801F53
:102390000EDA9FEDE30B53EC102B9DED0E0B51EC81
:1023A000100BFDF7F7FFCDE90E016FF034000E467C
:1023B00000EB2650A0F2FF37C6F31300DA4940F0D5
:1023C0007F6646F040568842D8BF002408DDD749D2
:1023D0008142C8BF012403DC0024A6F580167F1CBF
:1023E000D348784400EBC4000F9690ED00CB9DEDF0
:1023F0000E0B53EC1C2B51EC100BFDF7C5FF9DEDA4
:102400000E0B41EC1B0B53EC1C2B51EC100BFDF78E
:102410001AFF41EC100B51EC190B53EC102BFEF78B
:102420002BF841EC1D0B51EC1B0B53EC1D2BFDF756
:10243000B1FF41EC1A0BBF488DED10AB78441095FD
:1024400090ED000B4FF0005040EA660000EB844036
:102450008DED080B00F5002009909DED080B53EC65
:102460001C2B51EC100BFDF78FFF9DED0E1B53EC59
:10247000112BFDF78CFF41EC100B53EC102B9DED55
:10248000100B51EC100BFDF785FF9DED080B41EC97
:102490001C0B53EC102B9DED100B51EC100BFDF7AA
:1024A00079FF53EC1B2BFDF772FF53EC1C2BFDF750
:1024B0006BFF53EC1D2BFDF76DFF41EC1C0B53EC38
:1024C0001A2B51EC1A0BFDF765FF41EC1B0B9A48D8
:1024D0000621B0EE4B0AF0EE6B0A784400F01DFBCB
:1024E000B0EE401AF0EE601AB0EE41DAF0EE61DACA
:1024F00053EC1B2B51EC1B0BFDF74CFF53EC1D2B2E
:10250000FDF748FF9DED100B41EC1B0B53EC1A2B14
:1025100051EC100BFDF797FE53EC1C2BFDF73AFF27
:1025200053EC1B2BFDF78FFE9DED100B41EC1B0BAD
:1025300053EC102B51EC100BFDF72CFF41EC1D0B55
:102540009FED7FEB53EC1E2BFDF77DFE53EC1B2B19
:10255000FDF779FE0890CDE908519DED080B53EC8D
:102560001E2B51EC100BFDF70FFF53EC1D2BFDF74D
:102570000BFF53EC1B2BFDF70AFF9DED080B41EC05
:102580001D0B53EC102B9DED100B51EC100BFDF7B8
:1025900001FF41EC1B0B53EC1A2B51EC1D0BFDF70B
:1025A000F9FE9DED080B41EC1A0B53EC102B51EC8E
:1025B0001C0BFDF7EFFE53EC1A2BFDF744FE41EC2C
:1025C0001A0B51EC1B0B53EC1A2BFDF73CFE0C9035
:1025D000CDE90C519DED0C0B53EC1B2B51EC100B6A
:1025E000FDF7D2FE53EC1A2BFDF7D1FE41EC1B0B8D
:1025F0009FED550B53EC102B9DED0C0B51EC100B7C
:10260000FDF7C8FE41EC1A0B9FED510B51EC1B0B73
:1026100053EC102BFDF7BEFE41EC1B0B9FED4E0B58
:1026200053EC102B9DED0C0B51EC100BFDF7B2FE93
:1026300053EC1B2BFDF707FE41EC100B4848784488
:1026400000EBC40090ED001B51EC100B53EC112B70
:10265000FDF7F9FD41EC1B0B3846FEF7D8F8CDE944
:10266000080153EC1B2B51EC1A0BFDF7ECFD41EC70
:10267000100B3C48784400EBC40090ED00CB51ECCB
:10268000100B53EC1C2BFDF7DEFD9DED081B53ECEE
:10269000112BFDF7D8FD0690CDE906519DED080BF5
:1026A00053EC102B9DED060B51EC100BFDF76CFE5F
:1026B00053EC1C2BFDF768FE53EC1A2BFDF764FE60
:1026C00053EC1B2BFDF763FE41EC100B9DED261B1D
:1026D00053EC102B8DED001B00959DED260B51EC5E
:1026E000100BFDF757FE9DED000B41EC1A0B53EC60
:1026F000102B9DED260B51EC100BFDF745FE9DEDCB
:10270000061B53EC112B2FE0000000604715F73F2C
:10271000FE822B654715F73F44DF5DF80BAE543E54
:1027200000000000000040438E9803007AB60B00C2
:102730003A11000068110000721000000000000053
:102740000000000000000840000000E009C7EE3F64
:10275000FD033ADC09C7EE3FF5015B14E02F3EBEF6
:10276000FE0E0000B80E0000FDF714FE53EC1A2B0D
:10277000FDF769FD9DED060B41EC1A0B53EC102B98
:102780009DED000B51EC100BFDF704FECDE90C01A3
:102790009DED0C0B51EC1A0B53EC102BFDF753FD78
:1027A000CDE902010C46AA498C422FDB611A08438D
:1027B00018D19DED0C0B53EC102B9DED020B51EC41
:1027C000100BFDF7E1FD41EC1B0B9FEDA30B51EC52
:1027D0001A0B53EC102BFDF736FD53EC1B2BFEF7B9
:1027E00027F82DD2022000F083FA00F051FA10EE03
:1027F000901A18EE900A8DED020B8DED008B61F3AF
:102800001E0003909DED020BFFF7BEBB944A24F01F
:102810000041914214D39349214408437FF4EFAC23
:102820009DED0C0B53EC102B9DED020B51EC100B9E
:10283000FDF7AAFD53EC1A2BFDF7FAFF7FF6DFAC8C
:1028400024F000408849894A002601EB2051824249
:102850002BDA481C4FF4801121FA00F02044844AFE
:10286000C0F30A517A44A1F2FF3192ED000B814A84
:102870008DED080BCA4020EA0202C0F3130040F4B9
:102880008010C1F1140120FA01F60992002CB8BFA2
:1028900076429DED080B53EC102B9DED0C0B51EC8B
:1028A000100BFDF771FDCDE90C019DED0C0B51EC0A
:1028B0001A0B53EC102BFDF7C6FC9FED6F0B089025
:1028C000CDE9085153EC102B9DED080B51EC100B8A
:1028D000FDF760FD41EC1B0B9FED690B53EC102BDA
:1028E0009DED080B51EC100BFDF754FD9DED0C0B0D
:1028F00041EC1C0B53EC102B9DED080B51EC100B15
:10290000FDF742FD53EC1A2BFDF741FD9FED5E1BD9
:1029100053EC112BFDF73EFD53EC1C2BFDF793FC04
:1029200041EC1A0B51EC1B0B53EC1A2BFDF78BFCF3
:10293000CDE902019DED020B53EC1B2B51EC100B6A
:10294000FDF722FD53EC1A2BFDF721FD9DED020B47
:1029500041EC1A0B53EC102B51EC100BFDF71AFD48
:10296000CDE908014A489DED080B0521784400F0A7
:10297000D4F89DED081B51EC100B53EC112BFDF717
:1029800009FD9DED021B53EC112BFDF700FDCDE978
:1029900006019DED020B53EC1A2B51EC100BFDF7C9
:1029A000F9FC53EC1A2BFDF74EFC9FED3B0B41EC71
:1029B0001A0B53EC102B9DED060B51EC100BFDF791
:1029C000E3FC9DED060B41EC1B0B53EC102B9DED36
:1029D000020B51EC100BFDF7DDFC53EC1B2BFDF74C
:1029E0004BFD53EC1A2BFDF7CFFC9DED021B53EC76
:1029F000112BFDF7C9FC53EC192BFDF7C8FCCDE9F1
:102A0000020101EB065001150029C8BF039015DC37
:102A10009DED020B324651EC100BFDF790FEFFF7D7
:102A200092F8042808BF00F043F932469DED020BEE
:102A300051EC100BFDF783FECDE902019DED020B79
:102A400051EC180B53EC102BFDF7A4FCFFF73ABB2D
:102A50000000904000000000FE822B654715973C67
:102A600000CC904000346F3F01FCFFFF0000E03FCE
:102A7000400D0000FFFF0F0000000000432EE63F66
:102A8000396CA80C615C20BEEF39FAFE422EE63F9D
:102A9000100C0000000000000000000000000040DA
:102AA00000B52DED048BB0EE409AF0EE609A83B045
:102AB00051EC190BFDF75AFE41EC180B18EE100AF9
:102AC00018EE901A8DED008B002818BF01200843E6
:102AD00020F00040C0F17F6000F1E040C00F14D052
:102AE00019EE101A19EE900A8DED009B002918BFFF
:102AF0000121084320F00040C0F17F6000F1E04078
:102B0000C00F04BF012000F0F3F8B0EE480A03B094
:102B1000F0EE680ABDEC048B00BD70B504462DEDE7
:102B2000028B4D1E00EBC500B0EE408AF0EE608ACD
:102B300090ED000B35F0060017D053EC182B51EC3C
:102B4000100BFDF727FC41EC100B6D1E04EBC500CC
:102B500090ED001B51EC100B53EC112BFDF773FBA8
:102B600041EC100B35F00600E7D1022D36D0042DD4
:102B70001CD0062D1CBFBDEC028B70BD53EC182B76
:102B800051EC100BFDF706FC94ED0A1B53EC112BD6
:102B9000FDF759FB53EC182BFDF7FCFB94ED081BDC
:102BA00053EC112BFDF74FFB41EC100B53EC182BA2
:102BB00051EC100BFDF7EEFB94ED061B53EC112BC3
:102BC000FDF741FB53EC182BFDF7E4FB94ED040BF0
:102BD00053EC102BFDF737FB41EC100B53EC182B8B
:102BE00051EC100BFDF7D6FB94ED021B53EC112BAF
:102BF000FDF729FB53EC182BFDF7CCFB94ED001BE4
:102C000053EC112BFDF71FFBBDEC028B41EC100BBD
:102C100070BD0000000000009FED070B10B553ECE5
:102C2000102B9FED070B51EC100BFDF725FC41EC31
:102C3000100B10BD000000000000000000000000AC
:102C4000000000000000F03F10B553EC102B51ECD9
:102C5000100BFDF7F8FA41EC100B10BD10B553EC5A
:102C6000112B51EC100BFDF7EEFA41EC100B10BDDF
:102C70009FED050B10B553EC102B51EC100BFDF72D
:102C8000FBFB41EC100B10BD000000000000000039
:102C90009FED050B10B553EC102B51EC100BFDF70D
:102CA00079FB41EC100B10BD00000000000000702B
:102CB0009FED050B10B553EC102B51EC100BFDF7ED
:102CC00069FB41EC100B10BD00000000000000107B
:102CD00002E008C8121F08C1002AFAD170477047E5
:102CE000002001E001C1121F002AFBD17047000043
:102CF00001490860704700008400002082B0CDE9DF
:102D0000000121F0004001909DED000B02B051EC5C
:102D1000100B70472DED108B82B0FEF799F9FEF77E
:102D2000A5FEFEF755FEFF48FD4900250160FE495E
:102D3000C0E901154FF48041C0E903514561856147
:102D4000C5610562FDF784FE00240A2301222146A5
:102D5000F448FDF701FF98B3641CE4B2FF2CF4D3F0
:102D6000F24C6B20A84620702E4665700A2502237F
:102D70002246D021EB480095FEF792F81B202070E8
:102D8000667002232246D021E6480095FEF788F8B7
:102D90001C202070667002232246D021E148009555
:102DA000FEF77EF8FDF74EFEA4F16C074FF0010B25
:102DB000B861DFEDDFFA38694FF0430938B153E00D
:102DC000FFE701221103DB48FDF736FEC8E70026C6
:102DD0009FEDD98A84F800900123D44AD021D148AC
:102DE0000095FEF75DF884F801800623621CD0216F
:102DF000CC480095FDF760FFB4F80100C72E40BA3B
:102E000000EE100AB8EE401A87ED0B1AB4F8030072
:102E1000C1EE081A40BA00EE100AB8EE400A87ED7B
:102E20000C0AB4F8050040BA00EE900AF8EE600A09
:102E3000C7ED0D0A97ED101A31EE811A87ED101AC1
:102E400080EE081A97ED110A31EE000A87ED110A9B
:102E500080EE880AD7ED120A30EE200A87ED120ABA
:102E60000FD0761CC82EB5DB4FF03B0A9FEDB3FAAE
:102E70009FEDB3AB9FEDB48B9FEDB59B7869A8B187
:102E8000FDE097ED100AC0EE2F0AC7ED100A97ED8E
:102E9000110AC0EE2F0AC7ED110A97ED120AC0EE13
:102EA0002F0AC7ED120AC7F810B0DDE75FF0000681
:102EB00084F800A001239D4AD0219A480095FDF78F
:102EC000EFFF84F801800623621CD021954800950D
:102ED000FDF7F2FEB4F8010040BA01B2F980B4F88F
:102EE000030000EE101A40BA00B2B8EEC00A3881F2
:102EF000B4F8052052BA20EE0F0A12B27A8187ED9B
:102F0000130A00EE100AB8EEC00A20EE0F0A87ED91
:102F1000140A00EE102AB8EEC00A20EE0F0A87ED60
:102F2000150A10EE100AFDF716FBB0EE4AEAF0EEB5
:102F30006AEA41EC100BB0EE4E1AF0EE6E1AFEF794
:102F400087FFB0EE40BAF0EE60BAF86CFDF703FB15
:102F500041EC100BB0EE4E1AF0EE6E1AFEF778FF51
:102F600053EC1B2B51EC100BFDF76DF941EC100BE2
:102F7000FFF796FDB0EE40BAF0EE60BA386DFDF79F
:102F8000EAFA53EC1B2BFDF777FA41EC100BFEF736
:102F9000F3FDB0EE48BAF0EE68BA53EC1B2B51ECDF
:102FA000100BFDF7F7F9B0EE49CAF0EE69CA53EC21
:102FB0001C2BFDF761FA41EC1D0B386EFDF7CBFAC7
:102FC00053EC1D2BFDF73FF9FDF7D8FA3866786D05
:102FD000FDF7C1FA41EC100BB0EE4E1AF0EE6E1A8E
:102FE000FEF736FFB0EE40DAF0EE60DA386DFDF74E
:102FF000B2FA41EC100BB0EE4E1AF0EE6E1AFEF77C
:1030000027FFB0EE401AF0EE601A53EC1D2B51EC86
:10301000110BFDF718F941EC100BFFF741FDB0EE75
:1030200040DA97ED130AF0EE60DAB1EE400A10EEE6
:10303000100AFDF790FA53EC1D2BFDF71DFA41EC39
:10304000100BFEF799FD53EC1B2B51EC100BFDF709
:10305000A1F953EC1C2BFDF70FFA41EC1B0B786E1A
:10306000FDF779FA53EC1B2BFDF7EDF8FDF786FA27
:103070007866C72E76D0761CC82EFFF619AF464666
:10308000C8469FED2DDA9FED34EADFED34EADFED3F
:1030900034DA4FF041094FF4AA7B00BF84F8009066
:1030A0000123224AD0211F480095FDF7F9FE6670E2
:1030B0000223621CD0211B480095FDF7FDFDB4F8EA
:1030C000010040BA00B2B88190FBFBF000EE100A9C
:1030D000B8EEC00A30EE0E0A87ED1A0AB869F86138
:1030E000FDF7B0FC00EE100AB8610123F8EE400ACB
:1030F00097ED070A0D4AD021B8EE400A094830EE94
:10310000C00AC0EE2E0AC7ED080A84F800800095B8
:10311000FDF7C6FE0623621C6670D021014822E03E
:103120000054004088000020801A06006C00002037
:1031300000004843000C02400000034300008038B8
:103140000000000000000040000000000080664019
:1031500000000060FB210940B81E124200007A44C2
:103160006666663F36E10095FDF7A6FD34F8010F6F
:10317000012340BA02B200EE102A3A806088F8EECD
:10318000C00A40BA01B2798080EE8D0AA088994ABF
:1031900040BA00B2B880D7ED100A70EE600A00EEB7
:1031A000101AD021C7ED0B0AB8EEC01A81EE0D0A35
:1031B00097ED111A30EE411A00EE100A8E4887ED95
:1031C0000C1AB8EEC00AC0EE0D1A97ED120A31EED5
:1031D000C00A87ED0D0A97ED080A60EE800A21EE1D
:1031E000000AC7ED0E0A87ED0F0A04F801AC00953E
:1031F000FDF756FE267022460623D0217E48641E27
:103200000095FDF759FDB4F8010040BA00B2F8800E
:10321000B4F8031000EE100A49BA0AB2B8EEC00AB8
:103220003A81B4F8051049BA20EE0F0A09B2798143
:1032300087ED130A00EE102AB8EEC00A20EE0F0A3E
:1032400087ED140A00EE101AB8EEC00A20EE0FCA7D
:1032500087ED15CA386EFDF77EF941EC1B0B1CEEAD
:10326000100AFDF778F941EC100BB0EE4A1AF0EEB7
:103270006A1AFEF7EDFDB0EE40CAF0EE60CAF86CD7
:10328000FDF769F941EC100BB0EE4A1AF0EE6A1A3C
:10329000FEF7DEFDB0EE401AF0EE601A53EC1C2B88
:1032A00051EC110BFCF7CFFF41EC100BFFF7F8FBD3
:1032B000B0EE40CAF0EE60CA386DFDF74CF953EC41
:1032C0001C2BFDF7D9F841EC100BFEF755FC53EC25
:1032D000182B51EC100BFDF75DF853EC192BFDF793
:1032E000CBF853EC1B2BFDF74FF8FDF747F9B8650A
:1032F000786EFDF730F941EC1C0B786DFDF72BF97A
:1033000041EC100BB0EE4A1AF0EE6A1AFEF7A0FD7F
:10331000B0EE40BAF0EE60BA386DFDF71CF941EC42
:10332000100BB0EE4A1AF0EE6A1AFEF791FDB0EEFD
:10333000401AF0EE601A53EC1B2B51EC110BFCF70A
:1033400082FF41EC100BFFF7ABFBB0EE40BA97EDFC
:10335000130AF0EE60BAB1EE400A10EE100AFDF763
:10336000FAF853EC1B2BFDF787F841EC100BFEF736
:1033700003FC53EC182B51EC100BFDF70BF853EC3E
:10338000192BFDF779F853EC1C2BFCF7FDFFFDF72B
:10339000F5F800EE100A87ED170AD7ED090A97ED48
:1033A0000E1AD7ED161A70EE810A20EEAD1ADFED77
:1033B000130A01EEA01A87ED091A97ED0A1AD7ED44
:1033C0000F1A31EE211A21EE2D1A00EE201A87ED88
:1033D0000A1A63E697ED180AC0EE2F0A00EE100AEB
:1033E000C7ED180AC0EE2F0AC7ED190AC7F814B0C6
:1033F00045E600006C00002088000020CDCCCC3DCC
:1034000000B52DED048B83B041EC190BFDF7AEF93F
:1034100041EC180B18EE100A18EE901A8DED008B87
:10342000002818BF0120084320F00040C0F17F6051
:1034300000F1E040C00F14D019EE101A19EE900AF6
:103440008DED009B002918BF0121084320F00040AA
:10345000C0F17F6000F1E040C00F04BF0120FFF722
:1034600047FC51EC180B03B0BDEC048B00BD000011
:103470000000000000000102030406070809000024
:1034800000000102030400004FBB610567ACDD3F93
:10349000182D4454FB21E93F9BF681D20B73EF3F7B
:1034A000182D4454FB21F93FE2652F227F2B7A3CF3
:1034B000075C143326A6813CBDCBF07A8807703CAC
:1034C000075C143326A6913CC4EB98999999C9BF1F
:1034D000711623FEC671BCBF6D9A74AFF2B0B3BF54
:1034E0009AFDDE522DDEADBF2F6C6A2C44B4A2BF14
:1034F0000D5555555555D53FFF8300922449C23F80
:103500006E204CC5CD45B73F513DD0A0660DB13FB3
:10351000EB0D76244B7BA93F11DA22E33AAD903FC5
:10352000000000000000F03F000000000000F83F35
:1035300000000000000000000000004003B8E23F6F
:10354000000000000000000006D0CF43EBFD4C3E21
:10355000033333333333E33FFFAB6FDBB66DDB3F16
:103560004D268F515555D53F01411DA96074D13F5E
:1035700065DBC9934A86CD3FEF4E454A287ECA3F58
:103580003E5555555555C53F93BDBE166CC166BFDA
:103590002CDE25AF6A56113FF16BD2C541BDBBBED3
:1035A000D0A4BE726937663E000000000000000033
:1035B000D03500080000002088000000D02C000852
:1035C000583600088800002058040000E02C00084D
:1035D00000000000000000000000000000000000EB
:1035E00000000000000000000000000000000000DB
:1035F00000000000000000000000000000000000CB
:1036000000000000000000000000000000000000BA
:1036100000000000000000000000000000000000AA
:10362000000000000000000000000000000000009A
:10363000000000000000000000000000000000008A
:103640000000000001000000100000000000000069
:083650000024F400000000005A
:040000050800018965
:00000001FF
